{
  "_format": "hh-sol-artifact-1",
  "contractName": "Drive",
  "sourceName": "Contracts/Drive.sol",
  "abi": [
    {
      "inputs": [
        {
          "internalType": "address",
          "name": "User",
          "type": "address"
        }
      ],
      "name": "Allow",
      "outputs": [],
      "stateMutability": "nonpayable",
      "type": "function"
    },
    {
      "inputs": [
        {
          "internalType": "address",
          "name": "User",
          "type": "address"
        }
      ],
      "name": "DisAllow",
      "outputs": [],
      "stateMutability": "nonpayable",
      "type": "function"
    },
    {
      "inputs": [
        {
          "internalType": "address",
          "name": "User",
          "type": "address"
        }
      ],
      "name": "Display",
      "outputs": [
        {
          "internalType": "string[]",
          "name": "",
          "type": "string[]"
        }
      ],
      "stateMutability": "view",
      "type": "function"
    },
    {
      "inputs": [],
      "name": "ShareAccess",
      "outputs": [
        {
          "components": [
            {
              "internalType": "address",
              "name": "User",
              "type": "address"
            },
            {
              "internalType": "bool",
              "name": "Allow",
              "type": "bool"
            }
          ],
          "internalType": "struct Drive.Access[]",
          "name": "",
          "type": "tuple[]"
        }
      ],
      "stateMutability": "view",
      "type": "function"
    },
    {
      "inputs": [
        {
          "internalType": "address",
          "name": "User",
          "type": "address"
        },
        {
          "internalType": "string",
          "name": "URL",
          "type": "string"
        }
      ],
      "name": "Upload",
      "outputs": [],
      "stateMutability": "nonpayable",
      "type": "function"
    }
  ],
  "bytecode": "0x608060405234801561001057600080fd5b50611409806100206000396000f3fe608060405234801561001057600080fd5b50600436106100575760003560e01c806316c61d721461005c5780632270a498146100785780634ab1fb4e146100945780635b24559e146100c457806362d61095146100e0575b600080fd5b61007660048036038101906100719190610b6c565b6100fe565b005b610092600480360381019061008d9190610b6c565b610544565b005b6100ae60048036038101906100a99190610b6c565b610766565b6040516100bb9190610ceb565b60405180910390f35b6100de60048036038101906100d99190610e42565b61097c565b005b6100e86109f1565b6040516100f59190610fa6565b60405180910390f35b60018060003373ffffffffffffffffffffffffffffffffffffffff1673ffffffffffffffffffffffffffffffffffffffff16815260200190815260200160002060008373ffffffffffffffffffffffffffffffffffffffff1673ffffffffffffffffffffffffffffffffffffffff16815260200190815260200160002060006101000a81548160ff021916908315150217905550600260003373ffffffffffffffffffffffffffffffffffffffff1673ffffffffffffffffffffffffffffffffffffffff16815260200190815260200160002060008273ffffffffffffffffffffffffffffffffffffffff1673ffffffffffffffffffffffffffffffffffffffff16815260200190815260200160002060009054906101000a900460ff16156103b05760005b600360003373ffffffffffffffffffffffffffffffffffffffff1673ffffffffffffffffffffffffffffffffffffffff168152602001908152602001600020805490508110156103aa578173ffffffffffffffffffffffffffffffffffffffff16600360003373ffffffffffffffffffffffffffffffffffffffff1673ffffffffffffffffffffffffffffffffffffffff16815260200190815260200160002082815481106102d6576102d5610fc8565b5b9060005260206000200160000160009054906101000a900473ffffffffffffffffffffffffffffffffffffffff1673ffffffffffffffffffffffffffffffffffffffff1603610397576001600360003373ffffffffffffffffffffffffffffffffffffffff1673ffffffffffffffffffffffffffffffffffffffff168152602001908152602001600020828154811061037257610371610fc8565b5b9060005260206000200160000160146101000a81548160ff0219169083151502179055505b80806103a290611030565b915050610224565b50610541565b600360003373ffffffffffffffffffffffffffffffffffffffff1673ffffffffffffffffffffffffffffffffffffffff16815260200190815260200160002060405180604001604052808373ffffffffffffffffffffffffffffffffffffffff168152602001600115158152509080600181540180825580915050600190039060005260206000200160009091909190915060008201518160000160006101000a81548173ffffffffffffffffffffffffffffffffffffffff021916908373ffffffffffffffffffffffffffffffffffffffff16021790555060208201518160000160146101000a81548160ff02191690831515021790555050506001600260003373ffffffffffffffffffffffffffffffffffffffff1673ffffffffffffffffffffffffffffffffffffffff16815260200190815260200160002060008373ffffffffffffffffffffffffffffffffffffffff1673ffffffffffffffffffffffffffffffffffffffff16815260200190815260200160002060006101000a81548160ff0219169083151502179055505b50565b6000600160003373ffffffffffffffffffffffffffffffffffffffff1673ffffffffffffffffffffffffffffffffffffffff16815260200190815260200160002060008373ffffffffffffffffffffffffffffffffffffffff1673ffffffffffffffffffffffffffffffffffffffff16815260200190815260200160002060006101000a81548160ff02191690831515021790555060005b600360003373ffffffffffffffffffffffffffffffffffffffff1673ffffffffffffffffffffffffffffffffffffffff16815260200190815260200160002080549050811015610762578173ffffffffffffffffffffffffffffffffffffffff16600360003373ffffffffffffffffffffffffffffffffffffffff1673ffffffffffffffffffffffffffffffffffffffff168152602001908152602001600020828154811061068e5761068d610fc8565b5b9060005260206000200160000160009054906101000a900473ffffffffffffffffffffffffffffffffffffffff1673ffffffffffffffffffffffffffffffffffffffff160361074f576000600360003373ffffffffffffffffffffffffffffffffffffffff1673ffffffffffffffffffffffffffffffffffffffff168152602001908152602001600020828154811061072a57610729610fc8565b5b9060005260206000200160000160146101000a81548160ff0219169083151502179055505b808061075a90611030565b9150506105dc565b5050565b60603373ffffffffffffffffffffffffffffffffffffffff168273ffffffffffffffffffffffffffffffffffffffff1614806108285750600160008373ffffffffffffffffffffffffffffffffffffffff1673ffffffffffffffffffffffffffffffffffffffff16815260200190815260200160002060003373ffffffffffffffffffffffffffffffffffffffff1673ffffffffffffffffffffffffffffffffffffffff16815260200190815260200160002060009054906101000a900460ff165b610867576040517f08c379a000000000000000000000000000000000000000000000000000000000815260040161085e906110d5565b60405180910390fd5b6000808373ffffffffffffffffffffffffffffffffffffffff1673ffffffffffffffffffffffffffffffffffffffff168152602001908152602001600020805480602002602001604051908101604052809291908181526020016000905b828210156109715783829060005260206000200180546108e490611124565b80601f016020809104026020016040519081016040528092919081815260200182805461091090611124565b801561095d5780601f106109325761010080835404028352916020019161095d565b820191906000526020600020905b81548152906001019060200180831161094057829003601f168201915b5050505050815260200190600101906108c5565b505050509050919050565b6000808373ffffffffffffffffffffffffffffffffffffffff1673ffffffffffffffffffffffffffffffffffffffff168152602001908152602001600020819080600181540180825580915050600190039060005260206000200160009091909190915090816109ec9190611301565b505050565b6060600360003373ffffffffffffffffffffffffffffffffffffffff1673ffffffffffffffffffffffffffffffffffffffff168152602001908152602001600020805480602002602001604051908101604052809291908181526020016000905b82821015610af1578382906000526020600020016040518060400160405290816000820160009054906101000a900473ffffffffffffffffffffffffffffffffffffffff1673ffffffffffffffffffffffffffffffffffffffff1673ffffffffffffffffffffffffffffffffffffffff1681526020016000820160149054906101000a900460ff16151515158152505081526020019060010190610a52565b50505050905090565b6000604051905090565b600080fd5b600080fd5b600073ffffffffffffffffffffffffffffffffffffffff82169050919050565b6000610b3982610b0e565b9050919050565b610b4981610b2e565b8114610b5457600080fd5b50565b600081359050610b6681610b40565b92915050565b600060208284031215610b8257610b81610b04565b5b6000610b9084828501610b57565b91505092915050565b600081519050919050565b600082825260208201905092915050565b6000819050602082019050919050565b600081519050919050565b600082825260208201905092915050565b60005b83811015610bff578082015181840152602081019050610be4565b60008484015250505050565b6000601f19601f8301169050919050565b6000610c2782610bc5565b610c318185610bd0565b9350610c41818560208601610be1565b610c4a81610c0b565b840191505092915050565b6000610c618383610c1c565b905092915050565b6000602082019050919050565b6000610c8182610b99565b610c8b8185610ba4565b935083602082028501610c9d85610bb5565b8060005b85811015610cd95784840389528151610cba8582610c55565b9450610cc583610c69565b925060208a01995050600181019050610ca1565b50829750879550505050505092915050565b60006020820190508181036000830152610d058184610c76565b905092915050565b600080fd5b600080fd5b7f4e487b7100000000000000000000000000000000000000000000000000000000600052604160045260246000fd5b610d4f82610c0b565b810181811067ffffffffffffffff82111715610d6e57610d6d610d17565b5b80604052505050565b6000610d81610afa565b9050610d8d8282610d46565b919050565b600067ffffffffffffffff821115610dad57610dac610d17565b5b610db682610c0b565b9050602081019050919050565b82818337600083830152505050565b6000610de5610de084610d92565b610d77565b905082815260208101848484011115610e0157610e00610d12565b5b610e0c848285610dc3565b509392505050565b600082601f830112610e2957610e28610d0d565b5b8135610e39848260208601610dd2565b91505092915050565b60008060408385031215610e5957610e58610b04565b5b6000610e6785828601610b57565b925050602083013567ffffffffffffffff811115610e8857610e87610b09565b5b610e9485828601610e14565b9150509250929050565b600081519050919050565b600082825260208201905092915050565b6000819050602082019050919050565b610ed381610b2e565b82525050565b60008115159050919050565b610eee81610ed9565b82525050565b604082016000820151610f0a6000850182610eca565b506020820151610f1d6020850182610ee5565b50505050565b6000610f2f8383610ef4565b60408301905092915050565b6000602082019050919050565b6000610f5382610e9e565b610f5d8185610ea9565b9350610f6883610eba565b8060005b83811015610f99578151610f808882610f23565b9750610f8b83610f3b565b925050600181019050610f6c565b5085935050505092915050565b60006020820190508181036000830152610fc08184610f48565b905092915050565b7f4e487b7100000000000000000000000000000000000000000000000000000000600052603260045260246000fd5b7f4e487b7100000000000000000000000000000000000000000000000000000000600052601160045260246000fd5b6000819050919050565b600061103b82611026565b91507fffffffffffffffffffffffffffffffffffffffffffffffffffffffffffffffff820361106d5761106c610ff7565b5b600182019050919050565b600082825260208201905092915050565b7f596f7520446f6e27742048617665204163636573730000000000000000000000600082015250565b60006110bf601583611078565b91506110ca82611089565b602082019050919050565b600060208201905081810360008301526110ee816110b2565b9050919050565b7f4e487b7100000000000000000000000000000000000000000000000000000000600052602260045260246000fd5b6000600282049050600182168061113c57607f821691505b60208210810361114f5761114e6110f5565b5b50919050565b60008190508160005260206000209050919050565b60006020601f8301049050919050565b600082821b905092915050565b6000600883026111b77fffffffffffffffffffffffffffffffffffffffffffffffffffffffffffffffff8261117a565b6111c1868361117a565b95508019841693508086168417925050509392505050565b6000819050919050565b60006111fe6111f96111f484611026565b6111d9565b611026565b9050919050565b6000819050919050565b611218836111e3565b61122c61122482611205565b848454611187565b825550505050565b600090565b611241611234565b61124c81848461120f565b505050565b5b8181101561127057611265600082611239565b600181019050611252565b5050565b601f8211156112b55761128681611155565b61128f8461116a565b8101602085101561129e578190505b6112b26112aa8561116a565b830182611251565b50505b505050565b600082821c905092915050565b60006112d8600019846008026112ba565b1980831691505092915050565b60006112f183836112c7565b9150826002028217905092915050565b61130a82610bc5565b67ffffffffffffffff81111561132357611322610d17565b5b61132d8254611124565b611338828285611274565b600060209050601f83116001811461136b5760008415611359578287015190505b61136385826112e5565b8655506113cb565b601f19841661137986611155565b60005b828110156113a15784890151825560018201915060208501945060208101905061137c565b868310156113be57848901516113ba601f8916826112c7565b8355505b6001600288020188555050505b50505050505056fea264697066735822122034f4e42fbcb34b8d9cdb70660fce1348815b07ec67fe7ecdd42e9f6ea33097b464736f6c63430008130033",
  "linkReferences": {},
  "deployedLinkReferences": {}
}